:100000000C94BB010C94D8010C94D8010C94D80129
:100010000C94D8010C94D8010C94D8010C94D801FC
:100020000C94D8010C9411040C94D8010C94D801B0
:100030000C94D8010C94D8010C94D8010C94D801DC
:100040000C94D8010C94D8010C94D8010C94D801CC
:100050000C94D8010C94D8010C94D8010C94D801BC
:100060000C94D8010C94D8010C94D8010C94D801AC
:100070000C94D8010C94D8010C94E10E0C94D80186
:100080000C94D8010C94D8010C94D801E701EB0131
:100090000202190230024C0273029A02C002E70205
:1000A0000E0335035C0385039C03B403D1030A20CC
:1000B0004B657920426F61726420436F6E74726F7A
:1000C0006C202D2050726573732061204B6579215F
:1000D0000A0A000A205350454544204445435245EE
:1000E000415345202D2D2D000A20535045454420D5
:1000F000494E435245415345202B2B2B000A205398
:1001000050454544204445435245415345202D2DFB
:100110002D000A20535045454420494E4352454145
:100120005345202B2B2B00736572766F203620737E
:100130006520746F75726E6520E020676175636875
:10014000650A00736572766F203620736520746FC0
:1001500075726E6520E02064726F6974650A0073C1
:100160006572766F2035207327696E636C696E65E2
:100170002076657273206C65206261730A00736576
:1001800072766F2035207327696E636C696E652007
:1001900076657273206C6520686175740A007365FA
:1001A00072766F2034207327696E636C696E6520E8
:1001B00076657273206C65206261730A00736572E4
:1001C000766F2034207327696E636C696E652076C4
:1001D000657273206C6520686175740A00736572BE
:1001E000766F2033207327696E636C696E652076A5
:1001F000657273206C652068617574200A007365F0
:1002000072766F2033207327696E636C696E652088
:1002100076657273206C6520626173200A007365D5
:1002200072766F203220736520746F75726E652050
:10023000E0206761756368650A00736572766F20F8
:100240003220736520746F75726E6520E0206472D1
:100250006F697465200A004C612070696E636520C7
:1002600073276F75767265200A004C612070696E85
:100270006365207365206665726D65200A0023231F
:10028000232323232323232323232323232323233E
:10029000232323232323232323232323232323232E
:1002A000232323232323232323232323232323231E
:1002B00023232323232323232323230A0A00466FF4
:1002C00072206F6C646572207265766973696F6EF7
:1002D0007320796F75206E65656420746865206F82
:1002E0006C64206578616D706C652070726F6772E8
:1002F000616D73210A004552524F523A2054686989
:10030000732070726F6772616D20697320696E74FB
:10031000656E64656420666F7220746865206E6522
:100320007720526F626F742041524D2076332050F7
:100330004342210A000A0A232323232323232323BE
:10034000232323232323232323232323232323237D
:10035000232323232323232323232323232323236D
:10036000232323232323232323232323232323235D
:10037000232323230A0011241FBECFEFD0E1DEBFC9
:10038000CDBF11E0A0E0B1E0E6E4F0E202C00590EC
:100390000D92A430B107D9F711E0A4E0B1E001C09B
:1003A0001D92AD34B107E1F70E94EF030C942110C8
:1003B0000C940000FC018131910508F00FC2EA5B4A
:1003C000FF4FEE0FFF1F0590F491E02D099480E0A0
:1003D0000E94BB0408958AB59BB501979BBD8ABD59
:1003E0008AB59BB501979BBD8ABD8AB59BB5019720
:1003F0009BBD8ABD8AB59BB501979BBD8ABD8AE628
:1004000092E080C18AB59BB501969BBD8ABD8AB535
:100410009BB501969BBD8ABD8AB59BB501969BBDD8
:100420008ABD8AB59BB501969BBD8ABD87E592E0E2
:1004300069C188B599B5019799BD88BD88B599B549
:10044000019799BD88BD88B599B5019799BD88BDBB
:1004500088B599B5019799BD88BD8AE392E052C1EC
:1004600088B599B5019699BD88BD88B599B50196AD
:1004700099BD88BD88B599B5019699BD88BD88B5E7
:1004800099B5019699BD88BD88B599B5019699BD74
:1004900088BD8EE192E036C180917800909179001C
:1004A00001979093790080937800809178009091E3
:1004B000790001979093790080937800809178007B
:1004C00090917900019790937900809378008091C2
:1004D000780090917900019790937900809378004B
:1004E0008EEF91E00FC18091780090917900019694
:1004F00090937900809378008091780090917900B2
:100500000196909379008093780080917800909183
:10051000790001969093790080937800809178001B
:1005200090917900019690937900809378008DEDF9
:1005300091E0E8C0809186009091870001979093A8
:1005400087008093860080918600909187000197B4
:100550009093870080938600809186009091870019
:1005600001979093870080938600809186009091F8
:100570008700809100010E949B048DEB91E0C2C036
:1005800080918600909187000196909387008093D8
:100590008600809186009091870001969093870055
:1005A00080938600809186009091870001969093B9
:1005B0008700809386008091860090918700019645
:1005C00090938700809386008EE991E09BC0809194
:1005D000840090918500019790938500809384001A
:1005E000809184009091850001979093850080937D
:1005F00084008091840090918500019790938500FC
:10060000809384008091840090918500019790935D
:100610008500809384008EE791E074C0809184000F
:10062000909185000196909385008093840080913D
:1006300084009091850001969093850080938400BA
:10064000809184009091850001969093850080931D
:10065000840080918400909185000196909385009C
:10066000809384008FE591E04DC08091820090914D
:100670008300019790938300809382008091820091
:1006800090918300019790938300809382008091E2
:100690008200909183000197909383008093820061
:1006A00080918200909183000197909383008093C2
:1006B000820083E491E026C08091820090918300C3
:1006C00001969093830080938200809182009091A4
:1006D0008300019690938300809382008091820032
:1006E0009091830001969093830080938200809183
:1006F0008200909183000196909383008093820002
:1007000087E291E00E94C00E089582E191E00E948C
:10071000C00E809100019091010101979093010119
:1007200080930001029734F481E090E090930101FE
:100730008093000181E02EC08DEF90E00E94C00EFA
:1007400080910001909101010196909301018093A5
:1007500000018739910534F086E990E0909301011A
:100760008093000182E016C088EE90E00E94C00EE7
:100770008091000190910101019790930101809374
:100780000001029734F481E090E09093010180939E
:10079000000184E00E94BB0484EF91E00E94A90460
:1007A000089583ED90E00E94C00E80910001909129
:1007B0000101019690930101809300018739910511
:1007C00034F086E990E0909301018093000188E085
:1007D0000E94BB0484EF91E00E94A90408950E9446
:1007E000D70D88EE93E00E94A9048AE090E09093F0
:1007F0000101809300018EEA90E00E94C00E0E94E9
:10080000EF0A80E293E00E94A90480E00E94BB040A
:100810000E942C050E94DA0181E090E00E94A90468
:10082000F7CF1F920F920FB60F9211248F939F93C1
:10083000809137019091380101969093380180930F
:100840003701809139018F5F8093390181508A305F
:1008500008F46AC08091260180FF09C080912701B9
:10086000909128010196909328018093270180910F
:10087000260181FF09C08091290190912A010196EA
:1008800090932A01809329018091260182FF09C05B
:1008900080912B0190912C01019690932C018093D3
:1008A0002B018091260183FF09C080912D01909139
:1008B0002E01019690932E0180932D0180912601A7
:1008C00084FF09C080912F0190913001019690938F
:1008D000300180932F018091260185FF09C080910E
:1008E0003101909132010196909332018093310150
:1008F0008091260186FF09C08091330190913401D7
:10090000019690933401809333018091260187FFF3
:1009100009C080913501909136010196909336017E
:1009200080933501109239019F918F910F900FBEE6
:100930000F901F9018951092380110923701282FB0
:1009400030E0809137019091380182179307C8F306
:1009500008959C010CC010923801109237018091CB
:100960003701909138010A97D0F32150304021157A
:10097000310589F70895E5E6F0E09081907F908356
:1009800090818F70892B80830895909165009E7F60
:10099000909365002091650090E0811191E0922B89
:1009A000909365000895909165009D7F90936500F8
:1009B00090916500811182E0892B809365000895F4
:1009C000909165009B7F90936500909165008111E7
:1009D00084E0892B80936500089590916500977F4E
:1009E0009093650090916500811188E0892B809338
:1009F00065000895E5E6F0E0808181608083808174
:100A00008D7F80830895E5E6F0E080818E7F80838E
:100A10008081826080830895E5E6F0E080818160D6
:100A200080838081826080830895E5E6F0E08081A4
:100A30008E7F808380818D7F8083089580910401E3
:100A4000882311F48AE601C08DE183BF08958AE40A
:100A500083BF089581BF089580910401882309F41C
:100A60008BC08FE08ABB81E08BBB10923801109263
:100A7000370180913701909138010F97D0F389B3F6
:100A8000682F70E020E830E040E050E0C9018623A4
:100A900097238217930709F4F6C04F5F5F4F4430E6
:100AA000510519F035952795F1CF82E08BBB109257
:100AB00038011092370180913701909138010F97DA
:100AC000D0F389B3682F70E020E830E040E050E0D8
:100AD000C901862397238217930709F4AFC04F5F9C
:100AE0005F4F4430510519F035952795F1CF84E0DB
:100AF0008BBB109238011092370180913701909191
:100B000038010F97D0F389B3682F70E020E830E008
:100B100040E050E0C901862397238217930709F428
:100B200068C04F5F5F4F4430510519F035952795E8
:100B3000F1CF88E08BBB1092380110923701809181
:100B40003701909138010F97D0F389B3682F70E087
:100B500040E850E020E030E0CA01862397232F5F71
:100B60003F4F8417950709F49CC02430310509F4E0
:100B700096C055954795F0CF80EF8ABB80E18BBB3F
:100B8000109238011092370180913701909138010D
:100B90000F97D0F389B3682F70E041E050E020E078
:100BA00030E0CA01862397232F5F3F4F84179507B4
:100BB00009F477C02430310519F0440F551FF1CFE7
:100BC00080E28BBB1092380110923701809137017F
:100BD000909138010F97D0F389B3682F70E021E02E
:100BE00030E040E050E0C901862397238217930745
:100BF00021F49A012B5F3F4F54C04F5F5F4F443049
:100C0000510519F0220F331FEECF80E48BBB1092F9
:100C100038011092370180913701909138010F9778
:100C2000D0F389B3682F70E021E030E040E050E07D
:100C3000C901862397238217930721F49A01275F1E
:100C40003F4F2FC04F5F5F4F4430510519F0220FC7
:100C5000331FEECF80E88BBB109238011092370122
:100C600080913701909138010F97D0F389B3682FA5
:100C700070E021E030E040E050E0C9018623972396
:100C80008217930721F49A01235F3F4F0AC04F5FF9
:100C90005F4F4430510519F0220F331FEECF20E093
:100CA00030E0C9010895369B03C020E030E01DC04C
:100CB000806487B986E886B922E030E00AC01092E5
:100CC00038011092370180913701909138010A97CD
:100CD000D0F3215030408FEF2F3F380781F7369AFD
:100CE0003699FECF16B824B135B1C901089517B8A9
:100CF00086E186B910BC0895806487B986ED86B90F
:100D00000895369969C0209102012430B9F1253047
:100D100050F42130D9F0213088F02230F9F023301E
:100D200009F052C023C02630E1F1263078F1273097
:100D300009F43FC02F3F09F047C041C084B195B1CD
:100D4000909316018093150181E427C084B195B179
:100D5000909318018093170182E41FC084B195B16C
:100D600090931C0180931B0183E417C084B195B15B
:100D7000909314018093130184E40FC084B195B162
:100D800090931E0180931D0185E407C084B195B145
:100D900090931A018093190186E487B986ED86B98C
:100DA00018C084B195B1909323018093220187E408
:100DB000F4CF84B195B1909321018093200180E418
:100DC00087B986ED86B902C0273018F0109202016B
:100DD00008952F5F2093020108953699ACC0409189
:100DE0000201443009F459C0453050F4413029F132
:100DF000413098F0423089F1433009F094C03DC051
:100E0000463009F46DC0463008F457C0473009F445
:100E100077C04F3F09F087C081C084B195B1209160
:100E2000150130911601820F931F96958795909327
:100E300016018093150181E44FC084B195B12091D2
:100E4000170130911801820F931F96958795909303
:100E500018018093170182E43FC084B195B12091BD
:100E60001B0130911C01820F931F969587959093DB
:100E70001C0180931B0183E42FC084B195B12091A4
:100E8000130130911401820F931F969587959093CB
:100E900014018093130184E41FC084B195B12091A3
:100EA0001D0130911E01820F931F96958795909397
:100EB0001E0180931D0185E40FC084B195B120917E
:100EC000190130911A01820F931F9695879590937F
:100ED0001A018093190186E487B986ED86B928C086
:100EE00084B195B12091220130912301820F931F8B
:100EF00096958795909323018093220187E4ECCF08
:100F000084B195B12091200130912101820F931F6E
:100F100096958795909321018093200180E487B96D
:100F200086ED86B902C0473018F01092020108958C
:100F30004F5F409302010895282F369960C0809139
:100F400002018430C1F1853050F48130E1F081300C
:100F500090F0823001F1833009F04FC024C0863018
:100F6000D1F1863080F18730F1F18F3F09F045C033
:100F7000822F80643FC084B195B190931601809315
:100F8000150180E437C084B195B190931801809326
:100F9000170181E42FC084B195B190931C01809317
:100FA0001B0182E427C084B195B190931401809312
:100FB000130183E41FC084B195B190931E01809307
:100FC0001D0184E417C084B195B190931A018093F8
:100FD000190185E40FC084B195B1909323018093EA
:100FE000220186E407C084B195B1909321018093DA
:100FF000200187E487B986ED86B920930201089520
:10100000CF93DF93EC01109236011092350180915D
:10101000260180688093260102C00E94810680918B
:101020003501909136018C179D07B8F38091260108
:101030008F7780932601DF91CF910895CF93DF932F
:10104000EC011092360110923501809126018068E2
:101050008093260102C00E94ED0680913501909197
:1010600036018C179D07B8F3809126018F77809306
:101070002601DF91CF910895A0E0B0E0BC01CD0141
:1010800020E533EC40E050E00E94BD0F9B01AC0135
:10109000BEE05695479537952795BA95D1F7C90182
:1010A0000895E199FECF90E09FBB8EBB6DBBE29AA5
:1010B000E19A0895E199FECF90E09FBB8EBBE09A44
:1010C0008DB3089582E0609107010E9451086091FC
:1010D000080183E00E94510884E0609109010E94A8
:1010E000510860910A0185E00E94510886E06091F4
:1010F0000B010E94510860910C0187E00E94510889
:1011000088E060910D010E94510860910E0189E014
:101110000E9451088AE060910F010E94510860917D
:1011200010018BE00E9451088CE0609111010E9437
:101130005108609112018DE00E945108089580913C
:101140000401882321F080916500806103C08091B3
:101150006500877F8093650008958091040188234E
:1011600021F0809165008F7E03C0809165008860CA
:1011700080936500089580910701909108019BBDBF
:101180008ABD24E630E00AC010923801109237017F
:1011900080913701909138010A97D0F32150304067
:1011A0008FEF2F3F380781F78091090190910A0155
:1011B00099BD88BD24E630E00AC010923801109233
:1011C000370180913701909138010A97D0F321506F
:1011D00030408FEF2F3F380781F780910B019091BE
:1011E0000C01909379008093780022E330E00AC0EC
:1011F0001092380110923701809137019091380197
:101200000A97D0F3215030408FEF2F3F380781F7F6
:1012100080910D0190910E0190938700809386003C
:1012200022E330E00AC01092380110923701809119
:101230003701909138010A97D0F3215030408FEF59
:101240002F3F380781F780910F0190911001909303
:1012500085008093840022E330E00AC010923801B8
:101260001092370180913701909138010A97D0F39D
:10127000215030408FEF2F3F380781F780911101C7
:1012800090911201909383008093820022E330E0DA
:101290000AC0109238011092370180913701909165
:1012A00038010A97D0F3215030408FEF2F3F380795
:1012B00081F70895E199FECF82E090E09FBB8EBB5D
:1012C000E09A3DB3E199FECF83E090E09FBB8EBBF7
:1012D000E09A2DB3922F80E0232F30E0822B932BC6
:1012E0009093080180930701E199FECF84E090E09C
:1012F0009FBB8EBBE09A3DB3E199FECF85E090E0C5
:101300009FBB8EBBE09A2DB3922F80E0232F30E05D
:10131000822B932B90930A0180930901E199FECFD0
:1013200086E090E09FBB8EBBE09A3DB3E199FECF93
:1013300087E090E09FBB8EBBE09A2DB3922F80E0B8
:10134000232F30E0822B932B90930C0180930B0181
:10135000E199FECF88E090E09FBB8EBBE09A3DB361
:10136000E199FECF89E090E09FBB8EBBE09A2DB360
:10137000922F80E0232F30E0822B932B90930E014D
:1013800080930D01E199FECF8AE090E09FBB8EBB78
:10139000E09A3DB3E199FECF8BE090E09FBB8EBB1E
:1013A000E09A2DB3922F80E0232F30E0822B932BF5
:1013B0009093100180930F01E199FECF8CE090E0B3
:1013C0009FBB8EBBE09A3DB3E199FECF8DE090E0EC
:1013D0009FBB8EBBE09A2DB3922F80E0232F30E08D
:1013E000822B932B9093120180931101809107011E
:1013F000909108018F5F9F4F31F48CED95E09093B1
:101400000801809307018091090190910A018F5F83
:101410009F4F31F48CED95E090930A018093090180
:1014200080910B0190910C018F5F9F4F31F48CEDF7
:1014300095E090930C0180930B0180910D019091A8
:101440000E018F5F9F4F31F48CED95E090930E016C
:1014500080930D0180910F01909110018F5F9F4F3C
:1014600031F48CED95E09093100180930F01809101
:101470001101909112018F5F9F4F31F48CED95E037
:1014800090931201809311010E94BB08089588EE89
:1014900093E09BBD8ABD24E630E00AC0109238017B
:1014A0001092370180913701909138010A97D0F35B
:1014B000215030408FEF2F3F380781F788EE93E0BF
:1014C00099BD88BD24E630E00AC010923801109220
:1014D000370180913701909138010A97D0F321505C
:1014E00030408FEF2F3F380781F788EE93E09093DD
:1014F00079008093780022E330E00AC0109238012E
:101500001092370180913701909138010A97D0F3FA
:10151000215030408FEF2F3F380781F788EE93E05E
:10152000909387008093860022E330E00AC01092F7
:1015300038011092370180913701909138010A9754
:10154000D0F3215030408FEF2F3F380781F788EEDE
:1015500093E0909385008093840022E330E00AC0FA
:101560001092380110923701809137019091380123
:101570000A97D0F3215030408FEF2F3F380781F783
:1015800088EE93E0909383008093820022E330E022
:101590000AC0109238011092370180913701909162
:1015A00038010A97D0F3215030408FEF2F3F380792
:1015B00081F708951BBC1ABC19BC18BC10927900A5
:1015C0001092780010928700109286001092850089
:1015D00010928400109283001092820008950E945D
:1015E000DA0A0E949F082AEF30E00AC01092380100
:1015F0001092370180913701909138010A97D0F30A
:10160000215030408FEF2F3F380781F7809107013D
:10161000909108019BBD8ABD24E630E00AC010927B
:1016200038011092370180913701909138010A9763
:10163000D0F3215030408FEF2F3F380781F7809152
:10164000090190910A0199BD88BD24E630E00AC0E5
:101650001092380110923701809137019091380132
:101660000A97D0F3215030408FEF2F3F380781F792
:1016700080910B0190910C019093790080937800F8
:1016800022E330E00AC010923801109237018091B5
:101690003701909138010A97D0F3215030408FEFF5
:1016A0002F3F380781F780910D0190910E019093A3
:1016B00087008093860022E330E00AC01092380150
:1016C0001092370180913701909138010A97D0F339
:1016D000215030408FEF2F3F380781F780910F0165
:1016E00090911001909385008093840022E330E074
:1016F0000AC0109238011092370180913701909101
:1017000038010A97D0F3215030408FEF2F3F380730
:1017100081F7809111019091120190938300809341
:10172000820022E330E00AC01092380110923701A3
:1017300080913701909138010A97D0F321503040C1
:101740008FEF2F3F380781F708950E94DA0A0E9431
:101750009F082AEF30E00AC010923801109237013A
:1017600080913701909138010A97D0F32150304091
:101770008FEF2F3F380781F780E496E09BBD8ABD4D
:1017800024E630E00AC010923801109237018091AF
:101790003701909138010A97D0F3215030408FEFF4
:1017A0002F3F380781F78CED95E099BD88BD24E681
:1017B00030E00AC010923801109237018091370151
:1017C000909138010A97D0F3215030408FEF2F3F8E
:1017D000380781F78CED95E090937900809378003D
:1017E00022E330E00AC01092380110923701809154
:1017F0003701909138010A97D0F3215030408FEF94
:101800002F3F380781F78CED95E090938700809308
:10181000860022E330E00AC01092380110923701AE
:1018200080913701909138010A97D0F321503040D0
:101830008FEF2F3F380781F78CED95E0909385006F
:101840008093840022E330E00AC0109238011092A5
:10185000370180913701909138010A97D0F32150D8
:1018600030408FEF2F3F380781F78CED95E0909354
:1018700083008093820022E330E00AC01092380196
:101880001092370180913701909138010A97D0F377
:10189000215030408FEF2F3F380781F70895833074
:1018A00009F1843030F4813059F0823009F045C0BC
:1018B00010C0853069F1853000F18630F1F533C014
:1018C0008091070190910801860F971F9BBD8ABDEB
:1018D00008958091090190910A01860F971F99BD83
:1018E00088BD089580910B0190910C01860F971F80
:1018F0009093790080937800089580910D019091E4
:101900000E01860F971F909387008093860008959D
:1019100080910F0190911001860F971F9093850081
:101920008093840008958091110190911201860F97
:10193000971F90938300809382000895AF92BF9287
:10194000CF92DF92EF92FF920F931F93CF93DF938B
:10195000D82E7B015A0123E0821711F1281738F0A5
:1019600081E0D81679F092E0D91649F412C025E04A
:10197000821741F18217E8F086E0D81661F1CCE8D1
:10198000DAE033C0CAB5DBB5809107019091080158
:101990002AC0C8B5D9B58091090190910A0123C028
:1019A000C0917800D091790080910B0190910C0149
:1019B0001AC0C0918600D091870080910D0190914E
:1019C0000E0111C0C0918400D091850080910F015B
:1019D0009091100108C0C0918200D0918300809145
:1019E000110190911201C81BD90BEC16FD060CF0E9
:1019F0005FC091E0D91611F010E007C010E0CE01F1
:101A00008E199F0988970CF011E021978D2DBE014A
:101A10000E944F0C109236011092350180912601E0
:101A200080688093260102C00E9481068091350162
:101A3000909136018A159B05B8F3809126018F7726
:101A400080932601EC16FD0604F3E701112329F526
:101A500097C02196CE018D509E4F875E934020F413
:101A60008D2DBE010E944F0C10923601109235014F
:101A70008091260180688093260102C00E94810621
:101A8000809135019091360180179107B8F38091CC
:101A900026018F778093260107C081E390E0E80E4E
:101AA000F91E85010E5F1F4FEC16FD0694F668C007
:101AB000CE15DF050CF064C091E0D91611F0CC24EE
:101AC00008C0CC24C7018C1B9D0B4E9714F0CC246E
:101AD000C3948E010F5F1F4F8D2DB8010E944F0CD4
:101AE0001092360110923501809126018068809312
:101AF000260102C00E948106809135019091360135
:101B00008A159B05B8F3809126018F778093260173
:101B10000E151F05FCF2CE01809590958E0D9F1D30
:101B20002196C80FD91FCC2029F52AC02197CE01B4
:101B30008D509E4F875E934020F48D2DBE010E94F4
:101B40004F0C109236011092350180912601806869
:101B50008093260102C00E948106809135019091F8
:101B600036018A159B05B8F3809126018F77809303
:101B7000260103C087010D511040C017D107B4F6EC
:101B8000DF91CF911F910F91FF90EF90DF90CF9059
:101B9000BF90AF900895A798AF9A00009F9B03C095
:101BA00010920401089581E0809304010895F8944F
:101BB0000E94CB0D80910401882309F479C01BBADF
:101BC0008FE088BB15BA12BA13B810926200109257
:101BD00065008ABB80EF87BB8CEF84BB8BE081BB49
:101BE0008AEF82B9109261008FE1809364000E94B5
:101BF000AD0880EC87B984E286B910928E008AE441
:101C000083BF8FEF81BF8AE085BD8CEC83BD38EA4E
:101C10003FBD22E12EBD80E29EE497BD86BD1DBC86
:101C20001CBC30938B0020938A009093810080939A
:101C3000800010928900109288001092980089E12B
:101C40008093990010929B0086E080939D0088E924
:101C500080939A0087B7806887BF78940E945A095A
:101C600080916500816080936500809165008D7F23
:101C70008093650028EE33E00AC01092380110927C
:101C8000370180913701909138010A97D0F32150A4
:101C900030408FEF2F3F380781F7809165008E7FAE
:101CA000809365008091650082608093650008954F
:101CB0001BBA8FE088BB15BA12BA13B81092620033
:101CC0001092650080EF8ABB87BB8CEF84BB8BE0F2
:101CD00081BB8AEF82B9109261008FE1809364002A
:101CE00085E393E00E94C00E86EF92E00E94C00E52
:101CF0008EEB92E00E94C00E8EE792E00E94C00E32
:101D000020ED37E049E951E005C0CA010197F1F73C
:101D10002150304021153105C1F780916500816067
:101D200080936500809165008D7F8093650088EECB
:101D300093E0FA013197F1F70197D9F780916500A7
:101D40008E7F80936500809165008D7F8093650014
:101D500020ED37E0DACF982F80919B0085FFFCCFF4
:101D600090939C000895FC0107C080919B0085FF23
:101D7000FCCF319690939C0090819923B1F7089500
:101D80009C0106C080919B0085FFFCCF90939C0036
:101D9000F9012F5F3F4F94919923A1F70895FC011A
:101DA000E40FF11D08C080919B0085FFFCCF3196A8
:101DB00090939C0061509081992311F0662399F7CC
:101DC00008951F920F920FB60F9211248F939F9335
:101DD000EF93FF93DF93CF930F92CDB7DEB7809150
:101DE0009C00898380913A01882391F490913C0171
:101DF000E92FF0E08981E35CFE4F80839F5F909341
:101E00003C0180913B01981718F082E080933A01E1
:101E10000F90CF91DF91FF91EF919F918F910F9054
:101E20000FBE0F901F90189510923C0180933B01BC
:101E300010923A01089580913A018823E1F30895C0
:101E4000AC0120E00AC0E22FF0E0DF01A35CBE4F4E
:101E50008C91E40FF51F80832F5F80913B01281741
:101E600090F381E080933A01089510923B0181E064
:101E700080933A01089510923C0180933B011092A7
:101E80003A0180913A018823E1F390E00AC0E92FFA
:101E9000F0E0DF01A35CBE4F8C91E60FF71F80835B
:101EA0009F5F80913B01981790F381E080933A0106
:101EB00008950F931F93DF93CF93CDB7DEB761974C
:101EC0000FB6F894DEBF0FBECDBF462F8E010F5F59
:101ED0001F4FB80150E00E94DC0FC8010E94B30EF2
:101EE00061960FB6F894DEBF0FBECDBFCF91DF91E4
:101EF0001F910F910895FF920F931F93DF93CF933C
:101F0000CDB7DEB761970FB6F894DEBF0FBECDBF79
:101F1000262FF42E8E010F5F1F4FB801422F50E085
:101F20000E94DC0FF80101900020E9F73197E01BD7
:101F3000F10B4F2D4E1B14167CF490E34150809111
:101F40009B0085FFFCCF90939C004423B9F7CE0102
:101F500001960E94B30E05C04195C8016F2D0E94E5
:101F6000CF0E61960FB6F894DEBF0FBECDBFCF91F6
:101F7000DF911F910F91FF900895629FD001739F91
:101F8000F001829FE00DF11D649FE00DF11D929F15
:101F9000F00D839FF00D749FF00D659FF00D992754
:101FA000729FB00DE11DF91F639FB00DE11DF91F78
:101FB000BD01CF0111240895FB019F01E894423037
:101FC000C4F04532B4F44A3029F497FB1EF49095DE
:101FD00081959F4F642F77270E940D10805D8A3373
:101FE0000CF0895D8193CB010097A1F716F45DE2B7
:101FF00051931082C9010C94FD0FDC01FC01672F85
:1020000071917723E1F7329704C07C916D937083CF
:102010006291AE17BF07C8F30895AA1BBB1B51E11D
:1020200007C0AA1FBB1FA617B70710F0A61BB70B48
:10203000881F991F5A95A9F780959095BC01CD01ED
:062040000895F894FFCFA3
:042046000A00FF008D
:00000001FF
