:100000000C9480010C949D010C949D010C949D0115
:100010000C949D010C949D010C949D010C949D01E8
:100020000C949D010C94BB030C949D010C949D01B8
:100030000C949D010C949D010C949D010C949D01C8
:100040000C949D010C949D010C949D010C949D01B8
:100050000C949D010C949D010C949D010C949D01A8
:100060000C949D010C949D010C949D010C949D0198
:100070000C949D010C949D010C948B0E0C949D018D
:100080000C949D010C949D010C949D01436F6D6D2A
:10009000616E6465206269656E20726563750A0031
:1000A000456E7472657220636F6D6D616E64650A72
:1000B00000736572766F203620736520746F7572D9
:1000C0006E6520E0206761756368650A007365727C
:1000D000766F203620736520746F75726E6520E030
:1000E0002064726F6974650A00736572766F2035DB
:1000F000207327696E636C696E6520766572732064
:100100006C65206261730A00736572766F2035201A
:100110007327696E636C696E652076657273206CF7
:100120006520686175740A00736572766F203420EB
:100130007327696E636C696E652076657273206CD7
:1001400065206261730A00736572766F20342073D4
:1001500027696E636C696E652076657273206C65C5
:1001600020686175740A00736572766F203320739E
:1001700027696E636C696E652076657273206C65A5
:100180002068617574200A00736572766F203320D1
:100190007327696E636C696E652076657273206C77
:1001A0006520626173200A00736572766F203220C9
:1001B000736520746F75726E6520E02067617563EA
:1001C00068650A00736572766F203220736520744B
:1001D0006F75726E6520E02064726F697465200A25
:1001E000004C612070696E63652073276F757672AD
:1001F00065200A004C612070696E6365207365207C
:100200006665726D65200A0023232323232323239D
:1002100023232323232323232323232323232323AE
:10022000232323232323232323232323232323239E
:10023000232323232323232323232323232323238E
:1002400023232323230A0A00466F72206F6C646500
:1002500072207265766973696F6E7320796F75208D
:100260006E65656420746865206F6C6420657861D4
:100270006D706C652070726F6772616D73210A001A
:100280004552524F523A20546869732070726F671A
:1002900072616D20697320696E74656E6465642097
:1002A000666F7220746865206E657720526F626F8A
:1002B000742041524D20763320504342210A000AD7
:1002C0000A23232323232323232323232323232317
:1002D00023232323232323232323232323232323EE
:1002E00023232323232323232323232323232323DE
:1002F00023232323232323232323232323230A000A
:1003000011241FBECFEFD0E1DEBFCDBF11E0A0E0D2
:10031000B1E0EAE9FFE102C005900D92A230B10719
:10032000D9F711E0A2E0B1E001C01D92A135B107FB
:10033000E1F70E94A0030C94CB0F0C94000081E025
:100340000E94BE0E8AE090E00E9453048EE191E08C
:100350000E94CA0E80911E018133C1F48AB59BB5FB
:1003600001979BBD8ABD8AB59BB501979BBD8ABD90
:100370008AB59BB501979BBD8ABD8AB59BB5019790
:100380009BBD8ABD84EF91E00E946A0E80911E01A0
:100390008233C1F48AB59BB501969BBD8ABD8AB5EF
:1003A0009BB501969BBD8ABD8AB59BB501969BBD49
:1003B0008ABD8AB59BB501969BBD8ABD81EE91E051
:1003C0000E946A0E80911E018333C1F488B599B5ED
:1003D000019799BD88BD88B599B5019799BD88BD2C
:1003E00088B599B5019799BD88BD88B599B501972C
:1003F00099BD88BD84EC91E00E946A0E80911E0137
:100400008433C1F488B599B5019699BD88BD88B586
:1004100099B5019699BD88BD88B599B5019699BDE4
:1004200088BD88B599B5019699BD88BD88EA91E0E7
:100430000E946A0E80911E01853341F580917800FB
:100440009091790001979093790080937800809142
:1004500078009091790001979093790080937800CB
:100460008091780090917900019790937900809322
:1004700078008091780090917900019790937900AD
:100480008093780088E891E00E946A0E80911E01B6
:10049000863341F580917800909179000196909390
:1004A000790080937800809178009091790001968E
:1004B00090937900809378008091780090917900F2
:1004C00001969093790080937800809178009091C4
:1004D00079000196909379008093780087E691E007
:1004E0000E946A0E80911E01873341F5809186003B
:1004F0009091870001979093870080938600809168
:1005000086009091870001979093870080938600E2
:100510008091860090918700019790938700809347
:1005200086008091860090918700019790938700C4
:100530008093860087E491E00E946A0E80911E01FC
:10054000883341F5809186009091870001969093C1
:1005500087008093860080918600909187000196A5
:100560009093870080938600809186009091870009
:1005700001969093870080938600809186009091E9
:1005800087000196909387008093860088E291E02F
:100590000E946A0E80911E01893341F5809184008A
:1005A00090918500019790938500809384008091BD
:1005B000840090918500019790938500809384003A
:1005C000809184009091850001979093850080939D
:1005D000840080918400909185000197909385001C
:1005E0008093840088E091E00E946A0E80911E0151
:1005F000813641F580918400909185000196909319
:1006000085008093840080918400909185000196FC
:100610009093850080938400809184009091850060
:10062000019690938500809384008091840090913E
:1006300085000196909385008093840089EE90E078
:100640000E946A0E80911E01823641F580918200DF
:100650009091830001979093830080938200809112
:100660008200909183000197909383008093820091
:1006700080918200909183000197909383008093F2
:100680008200809182009091830001979093830073
:10069000809382008DEC90E00E946A0E80911E0192
:1006A000833641F58091820090918300019690936A
:1006B0008300809382008091820090918300019654
:1006C00090938300809382008091820090918300B8
:1006D0000196909383008093820080918200909194
:1006E00083000196909383008093820081EB90E0D9
:1006F0000E946A0E089586E990E00E94D4040E9448
:10070000C8040E94A40484EF91E00E94530488EC82
:1007100090E00E94D4040E94AD0484EF91E00E9416
:1007200053048FEF90E00E94D4040E94B60484EF3B
:1007300091E00E9453040E94BF040E94D1040895D6
:100740000E94810D0E94990A80E293E00E94530466
:100750000E947B0381E090E090931D0180931C0137
:1007600080EA90E00E946A0E0E949F018CE890E06F
:100770000E946A0EF5CF1F920F920FB60F921124AE
:100780008F939F9380913B0190913C0101969093B0
:100790003C0180933B0180913D018F5F80933D013F
:1007A00081508A3008F46AC080912A0180FF09C014
:1007B00080912B0190912C01019690932C018093B4
:1007C0002B0180912A0181FF09C080912D01909118
:1007D0002E01019690932E0180932D0180912A0184
:1007E00082FF09C080912F01909130010196909372
:1007F000300180932F0180912A0183FF09C08091ED
:100800003101909132010196909332018093310130
:1008100080912A0184FF09C08091330190913401B5
:100820000196909334018093330180912A0185FFD2
:1008300009C080913501909136010196909336015F
:100840008093350180912A0186FF09C0809137018C
:1008500090913801019690933801809337018091EF
:100860002A0187FF09C08091390190913A010196D0
:1008700090933A018093390110923D019F918F919D
:100880000F900FBE0F901F90189510923C01109280
:100890003B01282F30E080913B0190913C01821771
:1008A0009307C8F308959C010CC010923C0110926C
:1008B0003B0180913B0190913C010A97D0F321507C
:1008C00030402115310589F70895E5E6F0E0908183
:1008D000907F908390818F70892B80830895909171
:1008E00065009E7F909365002091650090E08111E6
:1008F00091E0922B909365000895909165009D7F03
:100900009093650090916500811182E0892B80931E
:1009100065000895909165009B7F9093650090918C
:100920006500811184E0892B809365000895909182
:100930006500977F9093650090916500811188E034
:10094000892B809365000895E5E6F0E08081816061
:10095000808380818D7F80830895E5E6F0E080814B
:100960008E7F80838081826080830895E5E6F0E059
:100970008081816080838081826080830895E5E644
:10098000F0E080818E7F808380818D7F80830895D9
:1009900080910201882311F48AE601C08DE183BFB2
:1009A00008958AE483BF089581BF0895809102016C
:1009B000882309F48BC08FE08ABB81E08BBB109247
:1009C0003C0110923B0180913B0190913C010F97BB
:1009D000D0F389B3682F70E020E830E040E050E0C9
:1009E000C901862397238217930709F4F6C04F5F46
:1009F0005F4F4430510519F035952795F1CF82E0CE
:100A00008BBB10923C0110923B0180913B01909175
:100A10003C010F97D0F389B3682F70E020E830E0F5
:100A200040E050E0C901862397238217930709F419
:100A3000AFC04F5F5F4F4430510519F03595279592
:100A4000F1CF84E08BBB10923C0110923B0180916E
:100A50003B0190913C010F97D0F389B3682F70E070
:100A600020E830E040E050E0C90186239723821758
:100A7000930709F468C04F5F5F4F4430510519F088
:100A800035952795F1CF88E08BBB10923C011092F1
:100A90003B0180913B0190913C010F97D0F389B3CA
:100AA000682F70E040E850E020E030E0CA01862383
:100AB00097232F5F3F4F8417950709F49CC024307C
:100AC000310509F496C055954795F0CF80EF8ABB64
:100AD00080E18BBB10923C0110923B0180913B0165
:100AE00090913C010F97D0F389B3682F70E041E0FB
:100AF00050E020E030E0CA01862397232F5F3F4F6C
:100B00008417950709F477C02430310519F0440F94
:100B1000551FF1CF80E28BBB10923C0110923B013C
:100B200080913B0190913C010F97D0F389B3682FDE
:100B300070E021E030E040E050E0C90186239723D7
:100B40008217930721F49A012B5F3F4F54C04F5FE8
:100B50005F4F4430510519F0220F331FEECF80E470
:100B60008BBB10923C0110923B0180913B01909114
:100B70003C010F97D0F389B3682F70E021E030E09B
:100B800040E050E0C901862397238217930721F4A0
:100B90009A01275F3F4F2FC04F5F5F4F4430510591
:100BA00019F0220F331FEECF80E88BBB10923C016F
:100BB00010923B0180913B0190913C010F97D0F343
:100BC00089B3682F70E021E030E040E050E0C901D7
:100BD000862397238217930721F49A01235F3F4FBF
:100BE0000AC04F5F5F4F4430510519F0220F331F89
:100BF000EECF20E030E0C9010895369B03C020E02D
:100C000030E01DC0806487B986E886B922E030E014
:100C10000AC010923C0110923B0180913B019091DF
:100C20003C010A97D0F3215030408FEF2F3F380717
:100C300081F7369A3699FECF16B824B135B1C9017D
:100C4000089517B886E186B910BC0895806487B905
:100C500086ED86B90895369969C020910001243047
:100C6000B9F1253050F42130D9F0213088F022300C
:100C7000F9F0233009F052C023C02630E1F12630CC
:100C800078F1273009F43FC02F3F09F047C041C039
:100C900084B195B1909315018093140181E427C02C
:100CA00084B195B1909317018093160182E41FC01F
:100CB00084B195B190931B0180931A0183E417C00E
:100CC00084B195B1909313018093120184E40FC015
:100CD00084B195B1909322018093210185E407C0EE
:100CE00084B195B1909319018093180186E487B976
:100CF00086ED86B918C084B195B190932701809391
:100D0000260187E4F4CF84B195B1909325018093B7
:100D1000240180E487B986ED86B902C0273018F037
:100D20001092000108952F5F2093000108953699D5
:100D3000ACC040910001443009F459C0453050F432
:100D4000413029F1413098F0423089F1433009F0C7
:100D500094C03DC0463009F46DC0463008F457C019
:100D6000473009F477C04F3F09F087C081C084B194
:100D700095B12091140130911501820F931F969522
:100D80008795909315018093140181E44FC084B13D
:100D900095B12091160130911701820F931F9695FE
:100DA0008795909317018093160182E43FC084B128
:100DB00095B120911A0130911B01820F931F9695D6
:100DC000879590931B0180931A0183E42FC084B10F
:100DD00095B12091120130911301820F931F9695C6
:100DE0008795909313018093120184E41FC084B10E
:100DF00095B12091210130912201820F931F969588
:100E00008795909322018093210185E40FC084B1DE
:100E100095B12091180130911901820F931F969579
:100E20008795909319018093180186E487B986ED20
:100E300086B928C084B195B120912601309127014F
:100E4000820F931F96958795909327018093260193
:100E500087E4ECCF84B195B1209124013091250134
:100E6000820F931F96958795909325018093240177
:100E700080E487B986ED86B902C0473018F0109239
:100E8000000108954F5F409300010895282F36997F
:100E900060C0809100018430C1F1853050F4813010
:100EA000E1F0813090F0823001F1833009F04FC0E1
:100EB00024C08630D1F1863080F18730F1F18F3F48
:100EC00009F045C0822F80643FC084B195B19093F2
:100ED00015018093140180E437C084B195B19093DB
:100EE00017018093160181E42FC084B195B19093CE
:100EF0001B0180931A0182E427C084B195B19093BD
:100F000013018093120183E41FC084B195B19093C3
:100F100022018093210184E417C084B195B190939C
:100F200019018093180185E40FC084B195B19093A5
:100F300027018093260186E407C084B195B1909380
:100F400025018093240187E487B986ED86B9209333
:100F500000010895CF93DF93EC0110923A011092B3
:100F6000390180912A01806880932A0102C00E9481
:100F70002B068091390190913A018C179D07B8F3A7
:100F800080912A018F7780932A01DF91CF91089574
:100F9000CF93DF93EC0110923A01109239018091C6
:100FA0002A01806880932A0102C00E9497068091DE
:100FB000390190913A018C179D07B8F380912A016D
:100FC0008F7780932A01DF91CF910895A0E0B0E060
:100FD000BC01CD0120E533EC40E050E00E94670FFA
:100FE0009B01AC01BEE05695479537952795BA957C
:100FF000D1F7C9010895E199FECF90E09FBB8EBB68
:101000006DBBE29AE19A0895E199FECF90E09FBB13
:101010008EBBE09A8DB3089582E0609105010E9435
:10102000FB076091060183E00E94FB0784E060916A
:1010300007010E94FB076091080185E00E94FB0701
:1010400086E0609109010E94FB0760910A0187E038
:101050000E94FB0788E060910B010E94FB076091F2
:101060000C0189E00E94FB078AE060910D010E945B
:10107000FB0760910E018BE00E94FB078CE0609102
:101080000F010E94FB07609110018DE00E94FB0799
:10109000089580910201882321F08091650080618C
:1010A00003C080916500877F8093650008958091DB
:1010B0000201882321F0809165008F7E03C080911A
:1010C0006500886080936500089580910501909186
:1010D00006019BBD8ABD24E630E00AC010923C01A7
:1010E00010923B0180913B0190913C010A97D0F313
:1010F000215030408FEF2F3F380781F78091070153
:101100009091080199BD88BD24E630E00AC0109294
:101110003C0110923B0180913B0190913C010A9768
:10112000D0F3215030408FEF2F3F380781F7809167
:10113000090190910A01909379008093780022E34D
:1011400030E00AC010923C0110923B0180913B01BB
:1011500090913C010A97D0F3215030408FEF2F3F00
:10116000380781F780910B0190910C0190938700D3
:101170008093860022E330E00AC010923C01109276
:101180003B0180913B0190913C010A97D0F32150A3
:1011900030408FEF2F3F380781F780910D019091FC
:1011A0000E01909385008093840022E330E00AC012
:1011B00010923C0110923B0180913B0190913C01C7
:1011C0000A97D0F3215030408FEF2F3F380781F737
:1011D00080910F0190911001909383008093820081
:1011E00022E330E00AC010923C0110923B01809152
:1011F0003B0190913C010A97D0F3215030408FEF92
:101200002F3F380781F70895E199FECF82E090E003
:101210009FBB8EBBE09A3DB3E199FECF83E090E0A7
:101220009FBB8EBBE09A2DB3922F80E0232F30E03E
:10123000822B932B9093060180930501E199FECFB9
:1012400084E090E09FBB8EBBE09A3DB3E199FECF76
:1012500085E090E09FBB8EBBE09A2DB3922F80E09B
:10126000232F30E0822B932B90930801809307016A
:10127000E199FECF86E090E09FBB8EBBE09A3DB344
:10128000E199FECF87E090E09FBB8EBBE09A2DB343
:10129000922F80E0232F30E0822B932B90930A0132
:1012A00080930901E199FECF88E090E09FBB8EBB5F
:1012B000E09A3DB3E199FECF89E090E09FBB8EBB01
:1012C000E09A2DB3922F80E0232F30E0822B932BD6
:1012D00090930C0180930B01E199FECF8AE090E09E
:1012E0009FBB8EBBE09A3DB3E199FECF8BE090E0CF
:1012F0009FBB8EBBE09A2DB3922F80E0232F30E06E
:10130000822B932B90930E0180930D01E199FECFD8
:101310008CE090E09FBB8EBBE09A3DB3E199FECF9D
:101320008DE090E09FBB8EBBE09A2DB3922F80E0C2
:10133000232F30E0822B932B9093100180930F0189
:1013400080910501909106018F5F9F4F31F48CEDE4
:1013500095E090930601809305018091070190919B
:1013600008018F5F9F4F31F48CED95E09093080159
:10137000809307018091090190910A018F5F9F4F2F
:1013800031F48CED95E090930A01809309018091EE
:101390000B0190910C018F5F9F4F31F48CED95E024
:1013A00090930C0180930B0180910D0190910E019F
:1013B0008F5F9F4F31F48CED95E090930E018093F9
:1013C0000D0180910F01909110018F5F9F4F31F4BB
:1013D0008CED95E09093100180930F010E946508B9
:1013E000089588EE93E09BBD8ABD24E630E00AC0F4
:1013F00010923C0110923B0180913B0190913C0185
:101400000A97D0F3215030408FEF2F3F380781F7F4
:1014100088EE93E099BD88BD24E630E00AC01092C2
:101420003C0110923B0180913B0190913C010A9755
:10143000D0F3215030408FEF2F3F380781F788EEEF
:1014400093E0909379008093780022E330E00AC023
:1014500010923C0110923B0180913B0190913C0124
:101460000A97D0F3215030408FEF2F3F380781F794
:1014700088EE93E0909387008093860022E330E02B
:101480000AC010923C0110923B0180913B01909167
:101490003C010A97D0F3215030408FEF2F3F38079F
:1014A00081F788EE93E0909385008093840022E397
:1014B00030E00AC010923C0110923B0180913B0148
:1014C00090913C010A97D0F3215030408FEF2F3F8D
:1014D000380781F788EE93E0909383008093820031
:1014E00022E330E00AC010923C0110923B0180914F
:1014F0003B0190913C010A97D0F3215030408FEF8F
:101500002F3F380781F708951BBC1ABC19BC18BCC3
:101510001092790010927800109287001092860045
:101520001092850010928400109283001092820025
:1015300008950E94840A0E9449082AEF30E00AC0F8
:1015400010923C0110923B0180913B0190913C0133
:101550000A97D0F3215030408FEF2F3F380781F7A3
:1015600080910501909106019BBD8ABD24E630E083
:101570000AC010923C0110923B0180913B01909176
:101580003C010A97D0F3215030408FEF2F3F3807AE
:1015900081F7809107019091080199BD88BD24E6EB
:1015A00030E00AC010923C0110923B0180913B0157
:1015B00090913C010A97D0F3215030408FEF2F3F9C
:1015C000380781F78091090190910A019093790081
:1015D0008093780022E330E00AC010923C01109220
:1015E0003B0180913B0190913C010A97D0F321503F
:1015F00030408FEF2F3F380781F780910B0190919A
:101600000C01909387008093860022E330E00AC0AB
:1016100010923C0110923B0180913B0190913C0162
:101620000A97D0F3215030408FEF2F3F380781F7D2
:1016300080910D0190910E0190938500809384001C
:1016400022E330E00AC010923C0110923B018091ED
:101650003B0190913C010A97D0F3215030408FEF2D
:101660002F3F380781F780910F01909110019093DF
:1016700083008093820022E330E00AC010923C0194
:1016800010923B0180913B0190913C010A97D0F36D
:10169000215030408FEF2F3F380781F708950E9487
:1016A000840A0E9449082AEF30E00AC010923C01E7
:1016B00010923B0180913B0190913C010A97D0F33D
:1016C000215030408FEF2F3F380781F780E496E0BC
:1016D0009BBD8ABD24E630E00AC010923C01109206
:1016E0003B0180913B0190913C010A97D0F321503E
:1016F00030408FEF2F3F380781F78CED95E099BD93
:1017000088BD24E630E00AC010923C0110923B01F3
:1017100080913B0190913C010A97D0F321503040D9
:101720008FEF2F3F380781F78CED95E0909379008C
:101730008093780022E330E00AC010923C011092BE
:101740003B0180913B0190913C010A97D0F32150DD
:1017500030408FEF2F3F380781F78CED95E0909365
:1017600087008093860022E330E00AC010923C019B
:1017700010923B0180913B0190913C010A97D0F37C
:10178000215030408FEF2F3F380781F78CED95E0E7
:10179000909385008093840022E330E00AC0109289
:1017A0003C0110923B0180913B0190913C010A97D2
:1017B000D0F3215030408FEF2F3F380781F78CED69
:1017C00095E0909383008093820022E330E00AC08A
:1017D00010923C0110923B0180913B0190913C01A1
:1017E0000A97D0F3215030408FEF2F3F380781F711
:1017F0000895833009F1843030F4813059F082301B
:1018000009F045C010C0853069F1853000F186309F
:10181000F1F533C08091050190910601860F971F65
:101820009BBD8ABD08958091070190910801860FA4
:10183000971F99BD88BD08958091090190910A0173
:10184000860F971F90937900809378000895809178
:101850000B0190910C01860F971F90938700809346
:101860008600089580910D0190910E01860F971FBB
:101870009093850080938400089580910F0190914A
:101880001001860F971F9093830080938200089524
:10189000AF92BF92CF92DF92EF92FF920F931F937E
:1018A000CF93DF93D82E7B015A0123E0821711F1E9
:1018B000281738F081E0D81679F092E0D91649F46B
:1018C00012C025E0821741F18217E8F086E0D816B1
:1018D00061F1CCE8DAE033C0CAB5DBB5809105012F
:1018E000909106012AC0C8B5D9B5809107019091A1
:1018F000080123C0C0917800D0917900809109013E
:1019000090910A011AC0C0918600D0918700809101
:101910000B0190910C0111C0C0918400D091850001
:1019200080910D0190910E0108C0C0918200D0916C
:10193000830080910F0190911001C81BD90BEC1608
:10194000FD060CF05FC091E0D91611F010E007C061
:1019500010E0CE018E199F0988970CF011E02197B5
:101960008D2DBE010E94F90B10923A01109239019F
:1019700080912A01806880932A0102C00E942B0670
:101980008091390190913A018A159B05B8F38091B5
:101990002A018F7780932A01EC16FD0604F3E701F4
:1019A000112329F597C02196CE018D509E4F875E59
:1019B000934020F48D2DBE010E94F90B10923A0144
:1019C0001092390180912A01806880932A0102C017
:1019D0000E942B068091390190913A01801791075E
:1019E000B8F380912A018F7780932A0107C081E3A1
:1019F00090E0E80EF91E85010E5F1F4FEC16FD0604
:101A000094F668C0CE15DF050CF064C091E0D916DD
:101A100011F0CC2408C0CC24C7018C1B9D0B4E9721
:101A200014F0CC24C3948E010F5F1F4F8D2DB8018D
:101A30000E94F90B10923A011092390180912A010B
:101A4000806880932A0102C00E942B068091390190
:101A500090913A018A159B05B8F380912A018F77FE
:101A600080932A010E151F05FCF2CE0180959095FA
:101A70008E0D9F1D2196C80FD91FCC2029F52AC095
:101A80002197CE018D509E4F875E934020F48D2D7F
:101A9000BE010E94F90B10923A0110923901809117
:101AA0002A01806880932A0102C00E942B0680913F
:101AB000390190913A018A159B05B8F380912A016A
:101AC0008F7780932A0103C087010D511040C01702
:101AD000D107B4F6DF91CF911F910F91FF90EF9056
:101AE000DF90CF90BF90AF900895A798AF9A000075
:101AF0009F9B03C010920201089581E08093020130
:101B00000895F8940E94750D80910201882309F4CC
:101B100079C01BBA8FE088BB15BA12BA13B81092FD
:101B20006200109265008ABB80EF87BB8CEF84BB9C
:101B30008BE081BB8AEF82B9109261008FE18093C4
:101B400064000E94570880EC87B984E286B910923D
:101B50008E008AE483BF8FEF81BF8AE085BD8CEC65
:101B600083BD38EA3FBD22E12EBD80E29EE497BDF1
:101B700086BD1DBC1CBC30938B0020938A009093C3
:101B8000810080938000109289001092880010924A
:101B9000980089E18093990010929B0086E08093E1
:101BA0009D0088E980939A0087B7806887BF789402
:101BB0000E94040980916500816080936500809196
:101BC00065008D7F8093650028EE33E00AC0109297
:101BD0003C0110923B0180913B0190913C010A979E
:101BE000D0F3215030408FEF2F3F380781F780919D
:101BF00065008E7F80936500809165008260809390
:101C0000650008951BBA8FE088BB15BA12BA13B8E5
:101C1000109262001092650080EF8ABB87BB8CEF48
:101C200084BB8BE081BB8AEF82B9109261008FE1A7
:101C3000809364008FEB92E00E946A0E80E892E04D
:101C40000E946A0E88E492E00E946A0E88E092E0A8
:101C50000E946A0E20ED37E049E951E005C0CA0153
:101C60000197F1F72150304021153105C1F78091DE
:101C70006500816080936500809165008D7F809311
:101C8000650088EE93E0FA013197F1F70197D9F7F3
:101C9000809165008E7F80936500809165008D7FC7
:101CA0008093650020ED37E0DACF982F80919B007C
:101CB00085FFFCCF90939C000895FC0107C08091A4
:101CC0009B0085FFFCCF319690939C0090819923D7
:101CD000B1F708959C0106C080919B0085FFFCCF61
:101CE00090939C00F9012F5F3F4F94919923A1F7A6
:101CF0000895FC01E40FF11D08C080919B0085FF51
:101D0000FCCF319690939C0061509081992311F003
:101D1000662399F708951F920F920FB60F92112420
:101D20008F939F93EF93FF93DF93CF930F92CDB752
:101D3000DEB780919C00898380913E01882391F4D5
:101D400090914001E92FF0E08981EF5BFE4F8083A5
:101D50009F5F9093400180913F01981718F082E0B7
:101D600080933E010F90CF91DF91FF91EF919F9172
:101D70008F910F900FBE0F901F90189510924001F9
:101D800080933F0110923E01089580913E01882387
:101D9000E1F30895AC0120E00AC0E22FF0E0DF019A
:101DA000AF5BBE4F8C91E40FF51F80832F5F809156
:101DB0003F01281790F381E080933E01089510922F
:101DC0003F0181E080933E0108951092400180938D
:101DD0003F0110923E0180913E018823E1F390E0A3
:101DE0000AC0E92FF0E0DF01AF5BBE4F8C91E60F38
:101DF000F71F80839F5F80913F01981790F381E0E8
:101E000080933E0108950F931F93DF93CF93CDB737
:101E1000DEB761970FB6F894DEBF0FBECDBF462F79
:101E20008E010F5F1F4FB80150E00E94860FC8015E
:101E30000E945D0E61960FB6F894DEBF0FBECDBF57
:101E4000CF91DF911F910F910895FF920F931F93F0
:101E5000DF93CF93CDB7DEB761970FB6F894DEBFAF
:101E60000FBECDBF262FF42E8E010F5F1F4FB8017E
:101E7000422F50E00E94860FF80101900020E9F700
:101E80003197E01BF10B4F2D4E1B14167CF490E3A1
:101E9000415080919B0085FFFCCF90939C00442390
:101EA000B9F7CE0101960E945D0E05C04195C801AB
:101EB0006F2D0E94790E61960FB6F894DEBF0FBEAB
:101EC000CDBFCF91DF911F910F91FF900895629F39
:101ED000D001739FF001829FE00DF11D649FE00D22
:101EE000F11D929FF00D839FF00D749FF00D659F83
:101EF000F00D9927729FB00DE11DF91F639FB00D82
:101F0000E11DF91FBD01CF0111240895FB019F01BF
:101F1000E8944230C4F04532B4F44A3029F497FBD7
:101F20001EF4909581959F4F642F77270E94B70FDD
:101F3000805D8A330CF0895D8193CB010097A1F716
:101F400016F45DE251931082C9010C94A70FDC01D5
:101F5000FC01672F71917723E1F7329704C07C91E0
:101F60006D9370836291AE17BF07C8F30895AA1BE3
:101F7000BB1B51E107C0AA1FBB1FA617B70710F074
:101F8000A61BB70B881F991F5A95A9F780959095A6
:0A1F9000BC01CD010895F894FFCFC5
:021F9A00FF0046
:00000001FF
